:020000040800F2
:10000000E8F000203D0300083D330008B922000855
:10001000552B0008890D0008A94C000800000000BD
:1000200000000000000000000000000009020008BD
:10003000E91D000800000000B502000829030008BF
:100040005703000857030008570300085703000828
:100050005703000857030008570300085703000818
:100060005703000857030008570300085703000808
:100070005703000857030008691A000857030008CF
:10008000911A000857030008570300085703000897
:100090008D0D0008C90D000857030008811E0008D7
:1000A00057030008753F000857030008570300086E
:1000B00057030008FD4000085703000857030008D5
:1000C00057030008570300085703000857030008A8
:1000D000570300085149000857030008A9490008C0
:1000E0007D1E000857030008570300085703000847
:1000F0005703000857030008570300085703000878
:100100005703000857030008570300085703000867
:100110005703000857030008570300085703000857
:100120005703000857030008570300085703000847
:100130005703000857030008570300085703000837
:10014000050E0008410E0008570300085703000879
:100150005703000857030008C91A0008570300088E
:100160005703000857030008570300085703000807
:1001700057030008570300085703000857030008F7
:100180005703000857030008DFF810D000F04CFDBB
:1001900000F01CFA0048004735890008E8F000200C
:1001A00080F309887047EFF309807047684680F351
:1001B000098804480078C00714BF0220032080F398
:1001C0001488704774A40008DFF818C0EFF30583A3
:1001D0001B0618BF6047EFF31483DB0708BF6047B7
:1001E00000DF70474D940008DFF818C0EFF3058377
:1001F0001B0618BF6047EFF31483DB0708BF604797
:1002000000DF7047E1960008EFF30980816911F87B
:10021000021CC9BB10B590E80F10E047BDE81040C4
:10022000EFF3098C204B93E80600914229D081B16D
:100230000CB41EF0100F06BF2CED108A032301230F
:1002400081F826302CE9F00FC1F82CC009F022FD0E
:100250000CBC1A60D2F82CC0BCE8F00F92F8263023
:1002600013F0020F1ABFBCEC108A6FF0120E6FF081
:10027000020E8CF3098813F0010F08BF704792F843
:100280002500CCF80000704710B5084A126891426A
:1002900009D8074C54F8214090E80F10A047EFF31D
:1002A000098C8CE80F0010BD98000020A40C0008F9
:1002B000A40C000810B509F0C1FBBDE81040194BB3
:1002C00093E80600914208BF70470CB4EFF3098C25
:1002D0001EF0100F06BF2CED108A0223002381F8B8
:1002E00026302CE9F00FC1F82CC009F0D3FC0CBC6F
:1002F0001A60D2F82CC0BCE8F00F92F8263013F048
:10030000020F1ABFBCEC108A6FF0120E6FF0020ED3
:100310008CF3098813F0010F1CBF92F82530CCF83C
:10032000003070479800002010B509F095FDC4E733
:1003300010B509F07BF809F08FFDBEE7064880474D
:1003400006480047FEE7FEE7FEE7FEE7FEE7FEE7BA
:10035000FEE7FEE7FEE7FEE70D3F00088901000823
:100360009FED1A1AF5EE000A40EE010ABDEEE00A12
:10037000F5EEC00A10EE100AF1EE10FA38BF401E7A
:1003800000EE100A1349F7EE001AB8EEC00A30EE7C
:10039000C00ADFED0F0A20EE200AFCEEC00A10EEC4
:1003A000900AC0F3080000EE900A01EB8000F8EE1E
:1003B000600A90ED011A70EE600A90ED000A71EE8D
:1003C000E01A21EE800A00EE810A704783F9223E8E
:1003D0000000004458A50008DFED190AB5EEC00A78
:1003E00060EE200ABDEEE01A11EE100AF1EE10FAEE
:1003F00038BF401E00EE100A1349F7EE001AB8EE9F
:10040000C00A30EEC00ADFED0F0A60EE200ABCEE33
:10041000E00A10EE100AC0F3080000EE100A01EB2B
:100420008000B8EE400A90ED011A70EEC00A90ED1F
:10043000000A71EEE01A21EE800A00EE810A704790
:1004400083F9223E0000004458A500089FED220ACF
:100450008B0812D090ED002A90ED011AD0ED020A1F
:1004600030EE020AD0ED031A10305B1E30EE010AA6
:1004700030EE200A30EE210AECD111F003031AD03D
:10048000B3F1004F20D2002B15DD001F13F0010F38
:1004900004D0D0ED010A001D30EE800A5B080AD0BE
:1004A000D0ED010A30EE800AD0ED020A08305B1E62
:1004B00030EE800AF4D100EE901AF8EE600A80EE79
:1004C000201A82ED001A7047F0EC010A5B1E30EE34
:1004D000800AF9D1EFE700000000000010B4930893
:1004E00012D0B3F1004F32D24FF0010C012B0BDBD5
:1004F00050F8044B41F8044B50F8044B0CF1010C3C
:1005000041F8044B6345F3DA12F0030204BF10BC58
:100510007047B2F1004F25D2002ADCBF10BC7047F3
:10052000801E891E12F0010F03D030F8023F21F81F
:10053000023F520804BF10BC704743884B8030F81C
:10054000043F21F8043F521EF7D110BC704750F809
:1005500004CB41F804CB50F804CB41F804CB5B1E2C
:10056000F5D1D1E730F8023B21F8023B521EF9D118
:1005700010BC70470649074A0868504343F23902E5
:100580001044086040087047014908607047000047
:10059000340300206D4EC64140EA01039B0703D09F
:1005A00009E008C9121F08C0042AFAD203E011F8B2
:1005B000013B00F8013B521EF9D27047421C10F873
:1005C000011B0029FBD1801A7047000070B5054C53
:1005D000054D03E0206820448047241DAC42F9D13A
:1005E00070BD00007CB1000884B100082DE9FE4F09
:1005F000804681EA0300C00F0C46009021F00041C4
:1006000023F00045B8EB0200A94105D2404621463F
:1006100090461C460B46024623F00040104347D04C
:10062000270DC7F30A00C3F30A510290401A019044
:1006300040286BDAC3F3130040F4801B0098924605
:1006400020B10023D2EB030A63EB0B0B0198594650
:10065000C0F14002504600F07FF906460D46504674
:100660005946019A00F097F910EB08006141002407
:1006700087EA115284EAE7731A4340D0009A62B3C2
:10068000019A012A4FEA075215DC001B61EB0201B7
:100690004FF0004202EA0752CDE90042001C41F54A
:1006A000801132462B4600F0CEF903B0BDE8F08F42
:1006B00040462146F9E7001B61EB0201001C41F5B1
:1006C000801300185B412018A2F5001747EB0301C7
:1006D00040EAD570B6196D4111E06D084FEA360653
:1006E00045EAC0754FEA0752001B61EB0201001C8E
:1006F00041F5801149084FEA300000195141324656
:100700002B4603B0BDE8F04F00F08EB900980122EF
:1007100040000023D0EB020263EBE0730098214617
:100720004FEAE074B8EB000061EB0401E9E783F005
:1007300000435BE781F0004158E72DE9F04D81EA85
:10074000030404F0004B21F0004514464FF0000A6A
:1007500023F0004150EA050220D054EA01021DD0E6
:10076000C5F30A570246C5F31303C1F31300C1F3DF
:100770000A5640F4801543F48013A7EB0608101BBB
:10078000D64608F2FD3873EB050002D308F10108E4
:1007900001E092185B41B8F1000F03DA0020014636
:1007A000BDE8F08D00204FF48011064684460EE02F
:1007B000171B73EB050705D3121B63EB05030643F9
:1007C0004CEA010C49084FEA300092185B4150EAAC
:1007D0000107EDD152EA030012D082EA040083EA55
:1007E0000501084305D0101BAB4106D201220023AE
:1007F00006E000224FF0004302E06FF001025310C8
:100800001AEB06004CEB085110EB0A0041EB0B0110
:10081000BDE8F04D00F008B9F0B4CA17CB0F504056
:100820005140C61841F100054FEAC3723146280015
:100830004FF0960303D0B623F0BC00F0C7B83046A3
:100840000021F9E70EB5C10F80EAE0700844CA073D
:10085000002140F233438DE80E000A460B4600F0BB
:10086000F2F803B000BD70B5C1F30A5201F00045C3
:100870000024C1F3130140F2FF3341F480119A4286
:1008800001DA002070BD40F233439A42A2F23342B3
:1008900003DC524200F06FF800E090402C43F1D0AE
:1008A000404270BD00F0004230F000400AD0C10D5F
:1008B00001F56071C0F3160042EA0151C208400719
:1008C0001143704700200146704730B50B46014682
:1008D00000202022012409E021FA02F59D4205D3DF
:1008E00003FA02F5491B04FA02F52844151EA2F189
:1008F0000102F1DC30BD2DE9F05F05460020924693
:100900009B4688460646814640241BE028464146D1
:100910004746224600F02FF853465A46C01A9141E6
:1009200010D311461846224600F016F82D1A67EB30
:1009300001084F4622460120002100F00DF817EB78
:1009400000094E41201EA4F10104DFDC4846314677
:100950002A464346BDE8F09F202A04DB203A00FAED
:1009600002F1002070479140C2F1200320FA03F306
:10097000194390407047202A04DB203A21FA02F004
:100980000021704721FA02F3D040C2F120029140C9
:10099000084319467047202A06DBCB17203A41FA54
:1009A00002F043EAE07306E041FA02F3D040C2F1FC
:1009B000200291400843194670470029A8BF70479C
:1009C000401C490008BF20F00100704710B4B0FA85
:1009D00080FC00FA0CF050EA010404BF10BC704720
:1009E00049B1CCF1200421FA04F411FA0CF118BF3A
:1009F000012121430843A3EB0C01CB1D4FEA006109
:100A00004FEA102042BF002010BC704700EBC350DB
:100A100010440029A4BF10BC7047401C490008BF07
:100A200020F0010010BC704710B5141E73F10004D3
:100A300008DA401C41F1000192185B411A4301D1D0
:100A400020F0010010BD2DE9F04D92469B4611B1FA
:100A5000B1FA81F202E0B0FA80F220329046FFF75C
:100A60007BFF04460F4640EA0A0041EA0B01534669
:100A70005A46084313D0114653EA010019D0C8F171
:100A800040025046FFF777FF05460E46504659464E
:100A90004246FFF761FF084305D0012004E02046ED
:100AA0003946BDE8F08D0020054346EAE0762C4348
:100AB00037430A986305E40AA0EB08000022FD0A08
:100AC00044EA47540A3002D500200146E9E701050F
:100AD00010196941DDE9084500196941BDE8F04D8B
:100AE000A2E72DE9FE4F81EA030404F0004421F05F
:100AF000004100944FF0000B23F0004350EA010442
:100B00005ED052EA03045BD0C3F30A54C1F30A5522
:100B10002C44A4F2F3340194A0FB0254C1F313015A
:100B200041F48011C3F3130343F4801301FB024427
:100B300000FB034E840A970A44EA815447EA83572C
:100B4000A4FB076802958D0A05FB07854FEA932CE5
:100B500004FB0C542705029D4FEA065847EA163756
:100B6000B5EB08056EEB070C870E920E47EA81176E
:100B700042EA8312A7FB0201B6EB0B0164EB00040F
:100B80002B0D43EA0C335E1844EB1C50DA465146F9
:100B9000E7FB0201C5F313044FEA0B3343EA145396
:100BA0004FEA0432019C43EA0603A4F10C040294C8
:100BB000009CCDE900B4FFF746FF03B0BDE8F08F1D
:100BC00000200146F9E7C1F30A52C1F3130140F2D4
:100BD000FF3341F480119A4202DA00200146704747
:100BE00040F233439A42A2F2334202DC5242FFF710
:100BF000C2BEFFF7B1BE000030B5041E71F10004A3
:100C000004DB4FF00044404264EB0101141E73F119
:100C1000000405DB1C464FF00043524263EB040323
:100C2000994208BF904230BD064C074D06E0E0688F
:100C300040F0010394E8070098471034AC42F6D323
:100C4000FFF7A6FA5CB100087CB1000870B58C18FB
:100C500010F8015B15F0070301D110F8013B2A11D0
:100C600006D110F8012B03E010F8016B01F8016BBD
:100C70005B1EF9D12B0705D40023521E0DD401F8B9
:100C8000013BFAE710F8013BCB1A921C03E013F882
:100C9000015B01F8015B521EF9D5A142D8D30020B7
:100CA00070BD000000000000417829B12C4909788E
:100CB000491C2B4A117004E02A490978491E294A27
:100CC00011702849097829B96421264A1170002138
:100CD000234A11702249097801293ADD0021224A6C
:100CE00011700121214A1170B0F9021000EE101AA2
:100CF000B8EEC00A1E49D1ED000A30EE600A1D4967
:100D000081ED000A1C4991ED000A1A49D1ED000A53
:100D100020EE200AD1ED000A184991ED001A70EE7C
:100D2000C10A174991ED001A01EE200A154981ED1B
:100D3000000AB0F9021000EE101AB8EEC00A0C4911
:100D400081ED000A0B4991ED000A0C4981ED000A82
:100D500005E00121044A11700021044A1170704716
:100D6000EC020020ED020020AF0100207102002003
:100D70000403002008030020100300200C030020BF
:100D8000140300200003002000BFFEE710B502217D
:100D90000A4800F059FA60B1094A0021074800F0FA
:100DA00076FB084808F05AFD18B10549054807F0D8
:100DB00058FD0221014800F07DF810BD006400409C
:100DC00060CD00207029002010B510210A4800F0E5
:100DD0003BFA60B1094A0121074800F058FB084876
:100DE00008F03CFD18B10549054807F03AFD10210F
:100DF000014800F05FF810BD0064004074CD002091
:100E0000482A002010B502210A4800F01DFA60B1FE
:100E1000094A0021074800F03AFB084808F01EFD87
:100E200018B10549054807F01CFD0221014800F0F2
:100E300041F810BD0068004088CD0020202B002024
:100E400010B510210A4800F0FFF960B1094A0121EC
:100E5000074800F01CFB084808F000FD18B10549E0
:100E6000054807F0FEFC1021014800F023F810BDF2
:100E7000006800409CCD0020F82B002000220C4B85
:100E8000994202D10023836111E0C1F3130201F002
:100E900000730BB1C2600AE001F080630BB1026124
:100EA00005E001F000630BB1826000E04260704732
:100EB0007000F030B1F5007F3AD00FDC202928D047
:100EC00006DC01291CD004291DD0082940D11DE0D1
:100ED000402921D0B1F5807F3AD126E0B1F5004F0D
:100EE00031D006DCB1F5806F25D0B1F5006F2FD180
:100EF00024E0B1F5803F12D0B1F5003F28D111E0D8
:100F0000154A826025E00822C26022E01022C260F9
:100F10001FE0082202611CE01022026119E0082291
:100F2000426016E01022426013E00422426010E0AA
:100F3000042242600DE0042242600AE00022826145
:100F40000422426005E0002282610422426000E047
:100F500000BF00BF704700000101010010B504464A
:100F60000B48844209D10121480602F005FC00210A
:100F70004FF0007002F000FC08E00121880602F04A
:100F8000FBFB00214FF0806002F0F6FB10BD00007B
:100F90000064004010B5034800F008F8024800F073
:100FA00005F810BD006400400068004070B50646BA
:100FB0005F48864201D15F4C05E05F48864201D11F
:100FC0005E4C00E070BD45F20400005B00286BD071
:100FD00045F24400005D00F0800030B345F244006B
:100FE000005D00F07F0145F244000155002519E045
:100FF00005EB850045F20802224402EB80013046F1
:1010000002F00CFA58B105EB850045F208012144C5
:1010100001EB80022946304600F05FFB00E003E070
:10102000681CC5B2032DE3DB7FE0002539E02946CB
:10103000304602F01FF920B3012802D002282CD13B
:101040001EE005EB850045F20802224402EB800118
:10105000304602F0E3F950B105EB850045F2080196
:10106000214401EB80022946304600F036FB45F270
:101070004400005D00F03F0145F2440001550DE0E1
:101080000CE005EB850045F20801214401EB8002EC
:101090002946304600F021FB00E000BF00BF681C7D
:1010A000C5B2032DC3DB40E045F24400005D00F013
:1010B0004000D0BB45F24400005D00F0F00145F275
:1010C00044000155002523E02946304602F0D2F8BD
:1010D00070B1012802D0022816D108E045F2440080
:1010E000005D401CC1B245F2440001550DE00CE02A
:1010F00005EB850045F20801214401EB80022946F9
:10110000304600F0EAFA00E000BF00BF681CC5B23C
:10111000032DD9DB45F24400005D00F00F000328E9
:1011200003D1C02145F24400015500BF4AE7000049
:1011300000640040D02C002000680040187D002092
:1011400010B50021837A012202FA03F13D4A1268A8
:1011500042F001023B4B1A603A4A1C3212688A4341
:10116000384B1C331A60027BCAB9364A0C321268FB
:101170008A43344B0C331A604288C38842EA0343E3
:10118000304A4032847A42F834300288838842EA16
:1011900003432C4A4032847A02EBC4025360027B40
:1011A000012A19D1274A0C3212680A43254B0C3305
:1011B0001A604288038842EA0343224A4032847A12
:1011C00042F83430C288838842EA03431D4A4032E1
:1011D000847A02EBC4025360C27A3AB9194A121DEA
:1011E00012688A43174B1B1D1A6006E0154A121D30
:1011F00012680A43134B1B1D1A60028932B9114A47
:10120000143212688A430F4B14331A600289012A80
:1012100006D10C4A143212680A430A4B14331A607E
:10122000427B012A06D1074A1C3212680A43054B49
:101230001C331A60034A126822F00102014B1A6043
:1012400010BD00000066004070B504460D46002643
:1012500060692840002871D0B5F5807F5CD010DC33
:10126000082D35D006DC012D20D0022D24D0042DF0
:1012700072D127E0102D31D0202D35D0402D6BD1EB
:1012800038E0B5F5004F60D009DCB5F5007F49D0F6
:10129000B5F5806F4CD0B5F5006F5DD14FE0B5F579
:1012A000803F2DD0B5F5003F56D12FE0A0682D49E5
:1012B00000F0F0FA064651E0E068032100F0EAFA97
:1012C00006464BE0E068082100F0E4FA064645E0F7
:1012D000E068102100F0DEFA06463FE020690321B5
:1012E00000F0D8FA064639E02069082100F0D2FA69
:1012F000064633E02069102100F0CCFA06462DE0C6
:101300006068082100F0C6FA064627E060681021F0
:1013100000F0C0FA064621E0A069012100F0BAFA07
:1013200006461BE0A069022100F0B4FA064615E06B
:10133000A069042100F0AEFA06460FE00FE0A069B4
:10134000702100F0A7FA064608E06068042100F06A
:10135000A1FA064602E0FFE7002600BF00E00026F3
:10136000304670BD010101001AB143690B4343616E
:1013700002E043698B434361704730B50246002069
:101380000023146824F002041460146844F001047B
:10139000146000E05B1C546804F001041CB94FF6B3
:1013A000FF74A342F6D1546804F001040CB9002084
:1013B0006CE08C79012C04D1146844F08004146032
:1013C00003E0146824F080041460CC79012C04D16B
:1013D000146844F04004146003E0146824F04004EE
:1013E00014600C7A012C04D1146844F020041460B9
:1013F00003E0146824F0200414604C7A012C04D11A
:10140000146844F01004146003E0146824F010041D
:1014100014608C7A012C04D1146844F00804146020
:1014200003E0146824F008041460CC7A012C04D181
:10143000146844F00404146003E0146824F0040405
:1014400014608C78A407CD7844EA05640D7944EAE9
:1014500005444D7944EA05540D886D1E2C43D46132
:10146000146824F001041460002300E05B1C54683D
:1014700004F001041CB14FF6FF74A342F6D1546886
:1014800004F001040CB1002000E0012030BD10B5D3
:1014900000F5D87303EB01131B6803F00403137208
:1014A000137A53B900F5D87303EB01131B6840F2AC
:1014B000FF7404EA5353136009E000F5D87303EB9B
:1014C00001131B686FF0604404EAD303536000F516
:1014D000D87303EB01131B6803F00203537200F58A
:1014E000D87303EB01135B6803F00F03937200F5ED
:1014F000D87303EB01135B681B0AD37400F5D87330
:1015000003EB01139B68D37200F5D87303EB01134F
:101510009B681C0A147300F5D87303EB01139B68D6
:101520001C0C547300F5D87303EB01139B681B0E5E
:10153000937300F5D87303EB0113DB68D37300F5E5
:10154000D87303EB0113DB681C0A147400F5D8731D
:1015500003EB0113DB681C0C547400F5D87303EB28
:101560000113DB681B0E937421B9C36843F0200399
:10157000C36003E0036943F02003036110BD000072
:101580000B49096841F00101094A116011460968D7
:1015900043F60E729143064A11601146096841EA0A
:1015A000002111601146096821F0010111607047A6
:1015B0000066004010B502460020936803F0806387
:1015C000B3F1806F00D110E0936803F00063B3F1D2
:1015D000006F01D1012008E0936803F08053B3F15C
:1015E000805F01D1022000E00420042874D002F5BD
:1015F000C07303EB00131B6803F0010402F5C07312
:1016000003EB00131C600B7A7BB94B7A0C8843EA1E
:10161000445302F5C07404EB00142468234302F51C
:10162000C07404EB0014236010E00B7A4C6843EAAA
:10163000C4034C7A234302F5C07404EB00142468FD
:10164000234302F5C07404EB001423608B7A03F08B
:101650000F038B7202F5C07303EB00135B6823F07A
:101660000F0402F5C07303EB00135C6002F5C07356
:1016700003EB00135B688C7A234302F5C07404EB20
:10168000001463608B7B1C064B7B44EA03440B7B9A
:1016900044EA0323CC7A234302F5C07404EB00141C
:1016A000A3608B7C1C064B7C44EA03440B7C44EA1D
:1016B0000323CC7B234302F5C07404EB0014E360E6
:1016C00002F5C07303EB00131B6843F0010402F53D
:1016D000C07303EB00131C6010BD10B500F5C073A0
:1016E00003EB01131B6803F0010400F5C07303EB67
:1016F00001131C60137A7BB9537A148843EA44536C
:1017000000F5C07404EB01142468234300F5C07491
:1017100004EB0114236010E0137A546843EAC40315
:10172000547A234300F5C07404EB01142468234366
:1017300000F5C07404EB01142360937A03F00F03E7
:10174000937200F5C07303EB01135B6823F00F0481
:1017500000F5C07303EB01135C6000F5C07303EB8D
:1017600001135B68947A234300F5C07404EB011401
:101770006360937B1C06537B44EA0344137B44EA77
:101780000323D47A234300F5C07404EB0114A3604F
:10179000937C1C06537C44EA0344137C44EA0323F1
:1017A000D47B234300F5C07404EB0114E36000F51F
:1017B000C07303EB01131B6843F0010400F5C07311
:1017C00003EB01131C6010BD10B50446012C0BD1B6
:1017D000D8210B48DFF82CC000DFD8210848D830CA
:1017E000DFF820C000DF0AE0D8210748DFF814C086
:1017F00000DFD8210448D830DFF808C000DF10BD72
:101800007029002069980008202B00202DE9F04164
:1018100005460C4616461F46012D0ED104EBC401A9
:1018200001EB41010C4A02EBC1003A463146DFF8B8
:101830002CC000DFC0B2BDE8F08104EBC40101EBB5
:101840004101074A02EBC1003A463146DFF80CC0BD
:1018500000DFC0B2EFE700007029002061990008A6
:10186000202B002000210948018041808180418097
:10187000C02180F84410002105480180418081800A
:101880004180C02180F8441070470000D07C0020C7
:1018900018CD00200246002002EA01030BB101200E
:1018A00000E000207047000000B52DED0C8B8BB0E0
:1018B000274890ED060A10EE101A0846FEF7F2FFD0
:1018C00041EC180B224890ED050A10EE101A08465C
:1018D000FEF7E8FF41EC190B1D4890ED040A10EEED
:1018E000101A0846FEF7DEFF41EC1A0B184890ED7F
:1018F000030A10EE101A0846FEF7D4FF41EC1B0B4A
:10190000134890ED020A10EE101A0846FEF7CAFFBF
:1019100041EC1C0B0E4890ED010A10EE101A08461F
:10192000FEF7C0FF41EC1D0B8DED088B8DED069B86
:101930008DED04AB8DED02BB8DED00CB53EC1D2B7B
:10194000044808F01FFD0BB0BDEC0C8B00BD00007F
:10195000D0EA002020B0000800B52DED0E8B8FB02E
:101960002E4890ED080A10EE101A0846FEF79AFF6E
:1019700041EC180B294890ED070A10EE101A0846A2
:10198000FEF790FF41EC190B244890ED060A10EE8B
:10199000101A0846FEF786FF41EC1A0B1F4890ED1F
:1019A000050A10EE101A0846FEF77CFF41EC1B0BEF
:1019B0001A4890ED040A10EE101A0846FEF772FF5E
:1019C00041EC1C0B154890ED030A10EE101A084666
:1019D000FEF768FF41EC1D0B104890ED020A10EE77
:1019E000101A0846FEF75EFF41EC1E0B8DED0C8BC6
:1019F0008DED0A9B8DED08AB8DED06BB8DED04CB17
:101A00008DED02DB8DED00EB0448828841880448AF
:101A100008F0B8FC0FB0BDEC0E8B00BD90EA0020C2
:101A2000B8B0000808B51D208DF8000000208DF822
:101A3000010003208DF8020001208DF803006846A4
:101A400001F07EFC08BD08B525208DF800000020BF
:101A50008DF8010001208DF802008DF80300684622
:101A600001F06EFC08BD000010B50649064800F004
:101A70001BF930B10020054908700249024800F006
:101A800037F810BD0080001858600240380200206E
:101A900010B50949094800F007F958B1084807F09E
:101AA000DDFE18B10749064806F0DBFE024903488F
:101AB00000F01EF810BD0000008800208860024081
:101AC000B0CD0020C0DD002010B50649064800F06A
:101AD000EBF830B10020054908700249024800F0D7
:101AE00007F810BD00800028B86402407C00002088
:101AF0000246094B9A4201D2084801E006481038D4
:101B000001F000531BB1064B0B40C36002E0044BD5
:101B10000B40836070470000106402400060024088
:101B20007D0F7D0F21B1026842F00102026003E0E7
:101B3000026822F00102026070470000016821F093
:101B4000010101600021016041608160C1600161AB
:101B5000212141614A49884204D13D21484A103A35
:101B600091608CE046491831884205D14FF4746188
:101B7000434A103A916082E041493031884205D1B0
:101B80004FF474113E4A103A916078E03C49483174
:101B9000884205D14FF07461394A103A91606EE085
:101BA00037496031884204D13649354A103AD1600C
:101BB00065E033497831884204D13349304A103ADC
:101BC000D1605CE02E499031884204D12F492C4AE3
:101BD000103AD16053E02A49A831884205D14FF02C
:101BE0003D51274A103AD16049E02949884204D141
:101BF0003D21274A083A116041E0254918318842C1
:101C000005D14FF47461224A083A116037E0204947
:101C10003031884205D14FF474111D4A083A1160E1
:101C20002DE01B494831884205D14FF07461184AB4
:101C3000083A116023E016496031884204D1114905
:101C4000134A121F11601AE011497831884204D1F9
:101C50000D490F4A121F116011E00D499031884261
:101C600004D10A490A4A121F116008E00849A83144
:101C7000884204D14FF03D51054A121F1160704750
:101C8000106002403D000020400F002000003D2079
:101C900010640240014600200A6802F001020AB105
:101CA000012000E00020704770B5024600200024AB
:101CB0000025124EB24201D2114B01E00F4B103BF6
:101CC000104E0E4036B11E2606EAD124166806EAEA
:101CD000040502E0566906F0800501F000560EB1D9
:101CE0005C6800E01C68084E344004EA010616B146
:101CF0000DB1012000E0002070BD00001064024022
:101D0000006002403C0F3C0F7D0F7D0F10B501F0CD
:101D100080034BB122B1436943F08003436103E088
:101D2000436923F08003436180290BD02AB1036803
:101D300001F01E042343036004E0036801F01E0465
:101D4000A343036010BD000010B500220268134BCE
:101D50001A40CC680B6823434C6923438C692343A6
:101D6000CC6923430C6A23434C6A23438C6A234384
:101D70004C6B23438C6B23431A430260426922F06D
:101D80000702D1E90B3423431A4342610B694360D4
:101D90004B6883608B68C36010BD00003F801CF0FF
:101DA0000AB1016100E0C160704741607047000006
:101DB00041F210010248DFF80CC000DF704700005C
:101DC000B0CD00206998000870B504460D46C822C1
:101DD00021460348DFF80CC000DFC0B270BD000030
:101DE000B0CD0020619900087047000002480088CB
:101DF0004FF08041C86370470400002000EB800270
:101E0000520002F57A724FF080435A6301EB81026F
:101E1000520002F57A729A63704710B54FF47A70E7
:101E2000C10648638863002002F062F8032006F0D0
:101E300069FA10BD10B50E48007808B9012000E01D
:101E400000200B49087008460078012809D109488C
:101E5000017809480078FFF7D1FF032006F024FA43
:101E600004E0FFF7DAFF032006F04CFA10BD000093
:101E70009D0100209101002090010020704700008A
:101E800010B54FF4807000F04BF880B14FF48070C3
:101E900000F02AF81148008800F4807020B1002179
:101EA0004FF4807000F026F80D48006880474FF42A
:101EB000007000F035F880B14FF4007000F014F8B5
:101EC0000648008800F4007020B100214FF4007033
:101ED00000F010F803480068804710BD7000002033
:101EE000740000207800002001490860704700005D
:101EF000143C0140094A106039B1084A143A12688A
:101F00000243064B143B1A6006E0044A143A126876
:101F10008243024B143B1A6070470000143C01409E
:101F200001460020034A12680A400AB1012000E07D
:101F300000207047143C01400B490968A1F5FE419F
:101F4000FF3909B2094A118011464968B2F90020E7
:101F50001144064A516047F6FF71034A1160034A73
:101F600006CAC0E90012704724080040880100201A
:101F700047F6FF70014908607047000024080040E0
:101F800030B10749096841F48061054A116005E0F4
:101F90000349096821F48061014A1160704700001B
:101FA000003C024070B504460A460026092502B9E5
:101FB00009E0012A01D1160205E0022A01D1160228
:101FC00001E04FF4407600F09FF80546092D28D136
:101FD0001548006820F440701349086008460068FE
:101FE000304308600846006820F0F80008600846A2
:101FF000006844F0020108430B4908600846006885
:1020000040F48030086000F07FF80546064800681C
:1020100020F00200044908600846006820F0F8003B
:102020000860284670BD0000103C0240092013499A
:10203000096801F48031B1F5803F01D101201CE035
:102040000E49096801F0100109B1062015E00B499D
:10205000096801F4807109B102200EE0074909689E
:1020600001F0E00109B1072007E00449096801F027
:10207000020109B1082000E0092070470C3C024031
:102080000348006840F000400149086070470000C4
:10209000103C024030B502460C46092500F034F8E9
:1020A0000546092D19D10E48006820F440700C49EE
:1020B00008600846006840F4007008600846006840
:1020C00040F001000860146000F01EF80546044866
:1020D000006820F0010002490860284630BD000079
:1020E000103C02400548006800F0004028B1044858
:1020F00002490C390860034808607047103C0240F0
:1021000023016745AB89EFCD08B509200090FFF7A3
:102110008DFF009002E0FFF789FF00909DF800001E
:102120000128F8D09DF8000008BDF0B50A4600214E
:102130000023002400BF3DE0012505FA01F31568E6
:1021400005EA03049C4234D105684F000326BE40D3
:10215000B543056015794E00B54006683543056006
:102160001579012D02D01579022D16D185684F0001
:102170000326BE40B543856055794E00B54086685C
:1021800035438560456801268E40B5434560456806
:1021900096798E40B6B235434560C5684F00032638
:1021A000BE40B543C560D5794E00B540C6683543DD
:1021B000C560491C1029BFD3F0BDF0B50023002431
:1021C0004D07ED0E02FA05F3CE1000F1200555F88B
:1021D00026504E07F70E0F26BE40B543CF1000F134
:1021E000200646F82750CE1000F1200555F826505D
:1021F00045EA0304CE1000F1200545F82640F0BD65
:1022000008B502480068009008BD0000B001002039
:1022100001480078704700003602002010B51022F7
:102220000849094801F060FC06480078552803D1A8
:102230000448007F662803D000F0EAFA01F0C2FDEE
:1022400010BD0000D0EA002000000E0810B51022DA
:102250000849094801F048FC06480078552804D18F
:10226000044890F82400662803D000F0FDFA01F03D
:10227000B9FD10BD90EA002000000C080148B0F93B
:1022800000007047200200200148B0F900007047AC
:10229000220200200148B0F900007047240200200B
:1022A00001480078704700009D0100200148007837
:1022B000704700007002002009A100200BE00A5CBA
:1022C000124B9A8000BF114A128802F04002002A85
:1022D000F9D0421CD0B22A28F1D300BFFEE700009B
:1022E0000D0A456E74657220486172644661756CB2
:1022F000745F48616E646C65722C205379737465E9
:102300006D2048616C742E0D0A0000000010014021
:1023100010B50121402001F00FFA012001F0D0FAA0
:1023200010BD000010B500200E4908600E4800687E
:1023300020F440200C4908600846006840F48020E2
:10234000086000200949C1F8A402012006F0D8F96C
:1023500001200449086006F0D3F900200349C1F8C0
:10236000A00210BDA0824042000402400080404212
:102370001CB50121022001F0CFF94FF4407000900C
:1023800001208DF8040000208DF8060003208DF850
:10239000050001208DF8070069460548FFF7C5FED6
:1023A0000120044908600449C1F8A4021CBD0000D2
:1023B00000040240A08240420080404210B500204C
:1023C0000E4908600E48006820F440200C4908605F
:1023D0000846006840F48020086001200949C1F8DF
:1023E000A40206F08DF901200449086006F088F97E
:1023F00000200449C1F8A00210BD0000A0824042A4
:10240000000402400080404270B505460024164892
:10241000006820F4402014490860084600680860FD
:10242000002616E0002011490860012006F068F936
:1024300001200F49C1F8A0026006040E0B487C3849
:10244000006808B1601CC4B2012006F059F9701C84
:10245000C6B2082EE6DB15B9FFF7B0FF01E0FFF7C3
:1024600061FF204670BD000000040240A08240428F
:102470000080404270B504461448006820F44020B3
:10248000124908600846006840F480200860002077
:102490000F490860002516E0E0090D49091D086094
:1024A0006006040E012006F02BF901200949C1F84D
:1024B000A00206F025F9002005490860012006F079
:1024C0001FF9681CC5B2082DE6DB70BD0004024090
:1024D000A08240420080404210B50F48006820F4BE
:1024E00040200D4908600846006840F480200860DC
:1024F00001200A4908600A49C1F8A00206F000F963
:10250000002006490860012006F0FAF8002004497E
:10251000C1F8A00210BD000000040240A4824042A5
:102520000080404210B50E48006820F440200C495D
:1025300008600846006840F48020086000200949CF
:1025400008600949C1F8A402012006F0D9F8012069
:10255000044908600449C1F8A40206F0D1F810BD8E
:1025600000040240A08240420080404210B5002496
:102570001348006820F440201149086008460068AC
:10258000086001200F49086006F0BAF801200E49E2
:10259000C1F8A00206F0B4F807E0601CC4B2FA2C3F
:1025A00003DDFFF7BFFF012010BD0648803800683B
:1025B0000028F2D10349091F086000BFF4E70000BA
:1025C00000040240A48240420080404200B585B031
:1025D0000121480601F0C0F80121084601F09CF8ED
:1025E00009220B215248FFF7E8FD09220C2150482F
:1025F000FFF7E3FD4FF40060039002208DF8100018
:102600008DF8110000208DF8120001208DF81300C4
:1026100003A94748FFF789FD4FF48050039003A9B1
:102620004348FFF782FD4348FEF798FC00208DF8F1
:10263000060001208DF8070000208DF80800012019
:102640008DF8090000208DF80A008DF80B008DF838
:1026500002008DF8030008208DF8040003208DF897
:102660000500ADF8000069463248FEF786FE1420EA
:1026700005F0C0FF152005F0BDFF01214FF0C0603F
:1026800001F06AF80121022001F046F809220C212C
:102690002948FFF792FD09220D212748FFF78DFDFC
:1026A0004FF48050039002208DF810008DF8110037
:1026B00000208DF8120001208DF8130003A91E4898
:1026C000FFF733FD4FF40050039003A91A48FFF7BA
:1026D0002CFD1A48FEF742FC00208DF80600012070
:1026E0008DF8070000208DF8080001208DF8090002
:1026F00000208DF80A008DF80B008DF802008DF88F
:10270000030008208DF8040003208DF80500ADF8C3
:10271000000069460948FEF730FE402005F06AFFD8
:10272000412005F067FF0E20FEF72AFF05B000BD2F
:1027300000000240006400400004024000680040C5
:102740000EB50121022001F007F84FF6FF7001904D
:102750005320ADF800000020ADF80800ADF80200ED
:102760006946044801F062FF0121024801F0BFFD03
:102770000EBD00000004004000B587B001210846EE
:1027800000F0CAFF0121102001F006F807220921FC
:102790001D48FFF712FD07220A211B48FFF70DFD18
:1027A00000208DF81A0001208DF81B0002208DF802
:1027B00018000002059002208DF8190005A91248A2
:1027C000FFF7B3FC02208DF818004002059005A920
:1027D0000D48FFF7AAFC4FF4E13001900020ADF85E
:1027E0000800ADF80A00ADF80C00ADF810000C20A0
:1027F000ADF80E0001A9054802F0E8F901210348EF
:1028000002F0FAF807B000BD0000024000100140DD
:1028100055200F490870662008779FED0E0A08467C
:1028200080ED010A9FED0C0A80ED020A9FED0B0A74
:1028300080ED030A9FED0A0A80ED040A9FED090A64
:1028400080ED050A9FED070A80ED060A704700003B
:10285000D0EA002000D077450000614500208F4578
:1028600000009645000000005520144908706620BD
:1028700081F824004FF4C87048804FF42570888098
:102880009FED0F0A084680ED020AB7EE000A80EDC0
:10289000030AB0EE000A80ED040AB7EE080A80EDE4
:1028A000050A9FED080A80ED060AB2EE080A80EDDF
:1028B000070AB1EE060A80ED080A704790EA002088
:1028C000CDCC4C3E000070420EB50121082000F036
:1028D00043FF4FF0FF3001905320ADF8000000207F
:1028E000ADF80200ADF808006946044801F09EFE0C
:1028F0000121024801F0FBFC0EBD0000000C00406D
:102900002DE9FC4104460D4616466B46062243213E
:10291000682000F079F80746BFB99DF801009DF8DE
:10292000001040EA012000B220809DF803009DF8CD
:10293000021040EA012000B228809DF805009DF8B1
:10294000041040EA012000B230803846BDE8FC8126
:1029500010B5FFF70DFD80216B2000F0D9F8642041
:1029600005F0BEFE00216B2000F0D2F8032000F03D
:102970008DF8002000F082F84FF47A7000F0ABF888
:102980000021382000F0C4F800216A2000F0C0F8CF
:102990000021232000F0BCF88021372000F0B8F897
:1029A000752000F014F80446682C0CD101216B202E
:1029B00000F0AEF800216C2000F0AAF84FF47A7015
:1029C00000F089F801E0012010BD0020FCE770B59F
:1029D0000446FFF781FDD020FFF74CFDFFF7C6FD51
:1029E0002046FFF747FDFFF7C1FDFFF775FDD1203A
:1029F000FFF740FDFFF7BAFD0020FFF705FD054694
:102A0000FFF790FD284670BD2DE9F04106460F46C0
:102A100014461D46FFF760FD002141EA4601C8B299
:102A2000FFF728FDFFF7A2FD20B1FFF77BFD012096
:102A3000BDE8F0813846FFF71DFDFFF797FDFFF772
:102A40004BFD012101EB4601C8B2FFF713FDFFF773
:102A50008DFD0DE0012C04D10020FFF7D5FC28707E
:102A600003E00120FFF7D0FC2870601EC4B26D1C8B
:102A7000002CEFD1FFF756FD0020D9E710B5044632
:102A8000E006010E1C2000F043F810BD10B504460E
:102A9000E006010E1B2000F03BF810BD70B50446A7
:102AA0000025BC2C01DB012510E0622C01DB022596
:102AB0000CE02A2C01DB032508E0142C01DB0425A3
:102AC00004E00A2C01DB052500E0062529461A2032
:102AD00000F01EF870BD70B50446B4F57A7F01DDD4
:102AE0004FF47A74042C00DA04244FF47A7090FBCB
:102AF000F4F0401EC5B22946192000F009F8054639
:102B0000264604EBD671C1F34F00FFF7C7FF70BD37
:102B100070B505460C46FFF7DFFCD020FFF7AAFC96
:102B2000FFF724FD18B1FFF7FDFC012070BD28461A
:102B3000FFF7A0FCFFF71AFD2046FFF79BFCFFF70D
:102B400015FD18B1FFF7EEFC0120EFE7FFF7EAFCF7
:102B50000020EBE700BFFEE71CB50121062000F0D6
:102B6000DBFD40F20340009000208DF804008DF85A
:102B700006008DF8070003208DF8050069460A4815
:102B8000FFF7D3FA4FF40060009000208DF80400A6
:102B90008DF806008DF8070003208DF805006946C2
:102BA0000248FFF7C2FA1CBD0004024000080240C0
:102BB00050F82130134440F82130704770B52DEDA6
:102BC000088B84B004460D46F0EE408AB0EE608A71
:102BD0000020009001900290039000EE104AB8EEA1
:102BE000400ADFED370A30EE600AF1EE0C0A20EE03
:102BF000200AB0EE409A00EE105AB8EE400ADFED1F
:102C0000300A30EE600AF1EE0C0A20EE200AF0EEF7
:102C1000409ADFED2C0A68EE200AB0EE600AFDF75C
:102C2000DBFB60EE29BADFED270A68EE200AB0EE82
:102C3000600AFDF795FB49EE00BAB0EE6BAADFED36
:102C4000210A68EE200AB0EE600AFDF789FB60EE0B
:102C500029BADFED1C0A68EE200AB0EE600AFDF723
:102C6000BBFB49EE40BAF0EE6BAAB0EE68BABDEE1F
:102C7000CA0A10EE101A684602F0A6F8BDEEEA0A7B
:102C800010EE101A684602F0B7F8BDEECB0A10EE4F
:102C9000101A684602F062FB41F28831684600F083
:102CA0005FF8039E33B2029E32B2019E31B2009EA3
:102CB00030B200F021F804B0BDEC088B70BD00000C
:102CC0000000804403FA8E3C70B504460D46DFEDEB
:102CD000060A064890ED000A054801880548008864
:102CE000FFF76CFF70BD000000000000B002002084
:102CF000AE020020AC020020F0B585B006460C46BE
:102D000017461D46142214496846FDF745FC6042EB
:102D100004B2684205B2300A8DF80B00F1B28DF8AA
:102D20000C10210A8DF80D10E1B28DF80E10390A41
:102D30008DF80F10F9B28DF81010290A8DF81110C6
:102D4000E9B28DF8121000BF69460448FEF732FC64
:102D50000428F9D005B0F0BD90A40008006400403C
:102D600070B52DED028B84B004460E460020009015
:102D700001900290039000250DE054F825000028F2
:102D800002DD54F8250002E054F8250040424DF8D9
:102D90002500681CC5B2042DEFDB0421684607F04E
:102DA00009FB0398B0420ADB9DED030AF8EEC00A66
:102DB00000EE106AB8EEC00A80EE208A01E0B7EE9D
:102DC000008A94ED000AB8EEC00A20EE080ABDEEB3
:102DD000C00A84ED000A94ED010AB8EEC00A20EEA4
:102DE000080ABDEEC00A84ED010A94ED020AB8EEAD
:102DF000C00A20EE080ABDEEC00A84ED020A94ED76
:102E0000030AB8EEC00A20EE080ABDEEC00A84ED3F
:102E1000030A04B0BDEC028B70BD000030B585B074
:102E200004460D4614220F496846FDF7B5FB40F2F3
:102E30003110009055208DF80B00AA218DF80C1050
:102E4000210A8DF80D10E1B28DF80E10290A8DF8C7
:102E50001010E9B28DF8111069460348FEF7AAFB7D
:102E600005B030BDB8A400080064004030B585B09E
:102E700004460D4614220B496846FDF78DFB200AD7
:102E80008DF80B00E1B28DF80C10290A8DF80D10A9
:102E9000E9B28DF80E106946034800F001FB05B059
:102EA00030BD0000F4A400080068004010B50446DE
:102EB000217BE07A01EB002000B2E5490880A17B8C
:102EC000607B01EB002000B2E2490880217CE07BBE
:102ED00001EB002000B2E0490880A17C607C01EB9E
:102EE000002000B2DD490880DB48B0F90000B0F5F1
:102EF000E17F15DAD648B0F90000B0F5E17F0FDDCB
:102F00000846B0F9000040F22621884208DAD1488C
:102F1000B0F90000884203DD0120D149087043E187
:102F2000CD48B0F90000B0F5E17F15DAC848B0F936
:102F30000000B0F5E17F0FDDC848B0F9000040F2B5
:102F40002621884208DDC348B0F90000884203DD2D
:102F50000820C349087027E1BF48B0F90000B0F568
:102F6000E17F15DABA48B0F90000B0F5E17F0FDD76
:102F7000BA48B0F9000040F22621884208DDB54881
:102F8000B0F90000884203DA0720B54908700BE168
:102F9000B148B0F90000B0F5E17F15DDAC48B0F9FB
:102FA0000000B0F5E17F0FDAAC48B0F9000040F264
:102FB0002621884208DAA748B0F90000884203DDDC
:102FC0000320A7490870EFE0A348B0F90000B0F56E
:102FD000E17F15DD9E48B0F90000B0F5E17F0FDA22
:102FE0009E48B0F9000040F22621884208DD994849
:102FF000B0F90000884203DD042099490870D3E04D
:103000009548B0F90000B0F5E17F15DD9048B0F9C2
:103010000000B0F5E17F0FDA9048B0F9000040F20F
:103020002621884208DD8B48B0F90000884203DA87
:1030300005208B490870B7E08748B0F90000B0F56B
:10304000E17F15DD8248B0F90000B0F5E17F0FDDCA
:103050008248B0F9000040F22621884208DA7D4813
:10306000B0F90000884203DD02207D4908709BE032
:103070007948B0F90000B0F5E17F15DD7448B0F98A
:103080000000B0F5E17F0FDD7448B0F9000040F2B8
:103090002621884208DD6F48B0F90000884203DA33
:1030A00006206F4908707FE06B48B0F90000B0F56A
:1030B000E17F76DD6648B0F90000B0F5E17F70DDB4
:1030C0006648B0F9000040F22621884269DD614877
:1030D000B0F90000884264DD6148007809285BD0BF
:1030E00000BF012000F0FEFB0028FAD000F006FC33
:1030F00000B25C4908800846B0F90000FDF744FAC8
:10310000FDF738FA062190FBF1F201FB1200564957
:1031100008700846007830B94FF4D47053490880DD
:103120005349088038E050480078012808D14FF40E
:10313000D4704E4908804FF480604D4908802BE0E0
:1031400049480078022807D14002484908804FF4D6
:10315000D470474908801FE043480078032806D10F
:103160004FF4CB60414908804149088014E03E4853
:103170000078042808D14FF4CB603C4908804FF414
:1031800080603B49088007E04FF480603749088041
:103190004FF4CB603649088009203149087003E0BC
:1031A000FFE70A202E4908702D4800780B284DD2E1
:1031B000DFE800F04C060F181F28313A414A4B0057
:1031C0004FF4D470294908804FF4CB602849088017
:1031D0003CE04FF48060254908804FF4CB602449DF
:1031E000088033E04FF4CB602049088020490880F4
:1031F0002CE04FF4CB601D4908804FF480601C49DF
:10320000088023E04FF4CB60184908804FF4D47055
:10321000174908801AE04FF48060144908804FF481
:10322000D4701349088011E04FF4D4700F4908801E
:103230000F4908800AE04FF4D4700C4908804FF41D
:1032400080600B49088001E000E000BF00BF10BDB6
:103250007C0200207E020020780200207A020020FA
:10326000A502002090020020A2020020AC02002053
:10327000AE02002010B50246002321B1012907D07B
:1032800002290FD109E09068264C00EA04030BE004
:103290009068254C00EA040306E09068234C00EA9D
:1032A000040301E0002300BF00BF214C181BA34210
:1032B00023D011DC1F4CA3EB0400A3421BD004DC81
:1032C000BBB1B3F1806F28D121E0022819D06FF093
:1032D0007C44001B21D11CE0B0F5007F13D0164CBC
:1032E0002044C0B1B0F5803F09D0B0F5403F14D1C3
:1032F0000BE0022313E0002311E000230FE0002382
:103300000DE001230BE0012309E0012307E0012385
:1033100005E0012303E0012301E0002300BF00BF1B
:10332000D8B210BD03000004000300080000031021
:103330000001000801000004000100F870470000CF
:1033400070B5002100230F22C4781CB3174C2468E9
:1033500004F4E064C4F5E064C4F30721C1F104049B
:10336000E3B20A4144789C40E1B28478144021439E
:103370000C07210E0E4C05786155047804F01F05EA
:103380000124AC4005786D11AD0005F1E025C5F8CC
:10339000004109E0047804F01F050124AC40054D0C
:1033A0000678761145F8264070BD00000CED00E06F
:1033B00000E400E080E100E0C17A144A1170114697
:1033C0000978012907D11249097809B9012100E0DA
:1033D00000210F4A11700D490978022907D10D49C2
:1033E000097809B9012100E000210A4A1170074952
:1033F0000978032902D10021074A1170034909788D
:10340000042902D10121044A11707047AE01002045
:103410009B010020AD010020AF01002070B50546E2
:103420000E461B48854201D11A4C06E01A488542D7
:1034300001D11A4C01E0002070BD45F20200015B91
:10344000801E005B814201D10020F5E745F20200B9
:10345000005B00EB800004EB800114223046FDF796
:103460009BF845F20400005B401E81B245F2040067
:103470000153801E005B401C81B245F202000153E3
:10348000B1F5806F01DB002101530120D4E700007A
:1034900000640040D02C002000680040187D00200F
:1034A00070B505460E461D48854201D11C4C05E00D
:1034B0001C48854201D11C4C00E070BD04E0FDF7C2
:1034C00069FD1AA006F05EFF45F20400005B40F2C1
:1034D000FF318842F3DA4FF4A041095B01EB81012F
:1034E00004EB810014223146FDF756F845F2040042
:1034F000005B401C81B245F204000153001F005BD9
:10350000401C81B24FF4A0400153B1F5806F01DB44
:1035100000210153FDF73EFD00BFCEE700640040EF
:10352000D02C002000680040187D0020D2E7B3F6C0
:103530000D0A000000B52DED028B85B0B0EE408A7B
:10354000BCEEC80A10EE100AC0B209284CD2DFE85F
:1035500000F04B05101B262E334B3800012000F0E5
:103560003BFBFEF773FEFEF7F7F9002000F034FB9B
:103570003BE0012000F030FBFFF776F9FEF7ECF9B5
:10358000002000F029FB30E0012000F025FB00F0D6
:1035900029FCFEF7E1F9002000F01EFB25E00120E8
:1035A00000F01AFBFEF73AFEFEF77EF91DE0FFF78A
:1035B0002FF9FEF779F918E000F004FCFEF774F932
:1035C00013E014220B496846FCF7E6FF00200A4985
:1035D0000870642005F084F804218DF81110694604
:1035E0000648FDF7E7FF00E000BF00BF05B0BDECF7
:1035F000028B00BD08A500085900002000680040AB
:1036000010B504463A48B0F900003A490880207BDA
:10361000E17A40EA012000B2354908803648006866
:1036200038B10846B0F9000032490880002032491C
:1036300008603048B0F90000B0F5006F0BDA2C4894
:10364000B0F90000B0F5C05F05DD2C480068401EF1
:103650002A49086010E02648B0F90000B0F5006F74
:103660000ADA2448B0F90000B0F5C05F04DD234851
:103670000068401C21490860204800781C490988DE
:1036800001EB403000B21E4908800846B0F9003016
:1036900005221C491C4802F03FF9194908801B48C3
:1036A000008860B10846B0F9000000EE900AF8EE1C
:1036B000E00AB0EE600A164803F044F817E0154837
:1036C0000088401C134908800D48B0F9000000EE46
:1036D000900AF8EEE00AB0EE600A0D4803F032F806
:1036E0000C480088322802D101200849088010BD0A
:1036F000E8010020E6010020F0010020EC0100209C
:10370000B0010020E401002070EA0020E001002068
:1037100080090020E201002029B1064A1268024314
:10372000044B1A6004E0034A12688243014B1A609A
:10373000704700003038024029B1064A126802433F
:10374000044B1A6004E0034A12688243014B1A607A
:10375000704700003438024029B1064A126802431B
:10376000044B1A6004E0034A12688243014B1A605A
:10377000704700004038024029B1064A12680243EF
:10378000044B1A6004E0034A12688243014B1A603A
:10379000704700002038024029B1064A12680243EF
:1037A000044B1A6004E0034A12688243014B1A601A
:1037B000704700004438024029B1064A12680243AB
:1037C000044B1A6004E0034A12688243014B1A60FA
:1037D0007047000024380240F0B500210022002488
:1037E000022500260223324F3F6807F00C0121B169
:1037F000042905D0082937D105E02E4F076036E0AF
:103800002D4F076033E02A4F3F1F3F68C7F38056B4
:10381000274F3F1F3F6807F03F036EB1264FB7FBAE
:10382000F3F7DFF88CC0ACF1040CDCF800C0CCF38B
:10383000881C07FB0CF40CE01E4FB7FBF3F7DFF816
:1038400070C0ACF1040CDCF800C0CCF3881C07FBA2
:103850000CF4174F3F1F3F68C7F301477F1C7D00E3
:10386000B4FBF5F7076002E0124F076000BF00BF2E
:103870000F4F3F6807F0F0010909104F7A5C0768A5
:10388000D74047600A4F3F6807F4E051890A0B4F61
:103890007A5C4768D7408760054F3F6807F460410E
:1038A000490B064F7A5C4768D740C760F0BD0000FF
:1038B000083802400024F40040787D017D0000209B
:1038C00030B10749096841F00401054A116005E07B
:1038D0000349096821F00401014A116070470000A2
:1038E0000008065001460020034A12680A400AB147
:1038F000012000E0002070470408065001480068DD
:10390000704700000808065070B52DED028B044684
:10391000D4F80B0041490860084690ED000ADFED3D
:10392000400A80EE201ABDEEC10A10EE105A4FF484
:10393000B47105FB01F000EE100AB8EEC00A37487A
:10394000D0ED000A30EEC00A364880ED000A90ED56
:10395000000AB5EEC00AF1EE10FA07D290ED000AA7
:10396000DFED2F0A30EE200A80ED000A2E4890EDA0
:10397000000A2C48D0ED000AB4EEE00AF1EE10FA8D
:1039800004DD2A480078401C284908702748007840
:103990004FF4B47110FB01F000EE100AB8EEC00A4B
:1039A0002048D0ED000A30EE208A1F48D0ED000AF2
:1039B0001A4890ED001A30EEC10AF0EEC00A9FEDF1
:1039C0001C0AF4EEC00AF1EE10FA10DD002000F03F
:1039D000EBF8184890ED000AB1EE400A80ED000ABD
:1039E0000E4890ED000A104880ED000A13E00E48E2
:1039F000D0ED000A094890ED001A30EEC10AF0EE51
:103A0000C00A9FED0D0AF4EEC00AF1EE10FA02DDD5
:103A1000012000F0C9F8BDEC028B70BDBC02002093
:103A20000000B443C0020020740200207202002093
:103A30000000E143B00200200000964301480078F6
:103A4000704700002602002001461C48814201D236
:103A5000002070471A48814201D20820F9E719482E
:103A6000814201D21020F4E71748814201D2182088
:103A7000EFE71648814201D22020EAE7144881424C
:103A800001D22820E5E71348814201D23020E0E747
:103A90001148814201D23820DBE71048814201D22F
:103AA0004020D6E70E48814201D24820D1E70D4898
:103AB000814201D25020CCE75820CAE700400008DC
:103AC0000080000800C00008000001080000020893
:103AD00000000408000006080000080800000A08AA
:103AE00000000C0800000E0830B503460C461546D1
:103AF000002206E0184600F007F844F822001B1DDB
:103B0000521CAA42F6D330BD014608687047000037
:103B10002DE9F04704460E4617464FF009080025E8
:103B2000A946B4F1006F02D304F0030008B1BDE868
:103B3000F087FEF7D7FA0020FEF722FA254604EBBD
:103B400087091848854215D211E02846FFF7DCFFA7
:103B5000401C58B12846FFF777FF82460221FEF746
:103B600021FA8046B8F1090F01D002E02D1D4D4524
:103B7000EBD300BFB8F1090F0CD108E02046316843
:103B8000FEF788FA092800D003E0241D361D4C45B5
:103B9000F4D300BF0120FEF7F3F9FEF771FA00BF7E
:103BA000C5E700000000FF1F10B586B004461422D0
:103BB000074901A8FCF7F0FC8DF80F4000BF01A9F0
:103BC0000448FDF7F7FC0428F9D006B010BD00004A
:103BD00044A50008006400400149087070470000D7
:103BE0003602002010B52DED048BB0EE408AF0EEC9
:103BF000608AB0EE419AF0EE619A064880ED058A3F
:103C0000C0ED068A80ED079AFDF7A6FEBDEC048B99
:103C100010BD000090EA002010B52DED068BB0EE2F
:103C2000408AF0EE608AB0EE419AF0EE619AB0EE12
:103C300042AAF0EE62AABCEEC80A10EE100A0949C8
:103C40004880BCEEE80A10EE100A8880084680ED35
:103C5000029AC0ED039A80ED04AAFDF77DFEBDEC4B
:103C6000068B10BD90EA002010B52DED048B92B0AC
:103C7000F0EE408ABCEEE80A10EE100AC0B2052849
:103C80007ED2DFE800F0031221303F00FEF7B8FAE1
:103C90000E90BDF9380000EE100AB8EEC00A454893
:103CA00080ED010AFDF700FE7FE0FEF7A9FA0E9015
:103CB000BDF9380000EE100AB8EEC00A3D4880EDAC
:103CC000020AFDF7F1FD70E0FEF79AFA0E90BDF9D9
:103CD000380000EE100AB8EEC00A364880ED030A3C
:103CE000FDF7E2FD61E0FEF78BFA0E90BDF93A00B8
:103CF00000EE100AB8EEC00A2E4880ED040AFDF767
:103D0000D3FD52E0012080F3108800BFDFED2A1AB6
:103D10009FED2A1AF1EE040A9FED290A08A804F083
:103D2000F8FDDFED251A9FED251AF1EE040A9FED4F
:103D3000240A01A804F0EDFD00241BE00FAA10A93D
:103D400011A8FEF7DDFDBDF9440000EE100AB8EE43
:103D5000C00A01A804F090FDB0EE409ABDF93C0005
:103D600000EE100AB8EEC00A08A804F085FDB0EE17
:103D7000408A641C44F620608442DFD30D4800E092
:103D800012E080ED059A80ED068A012004F0E8FA41
:103D9000012004F0A5FC00F015F8FDF785FD0020DA
:103DA00080F3108800BF00E000BF00BF12B0BDEC80
:103DB000048B10BDD0EA00200060EA46CDCCCC3D9B
:103DC0000000000010B555200449087066200877EF
:103DD00010220348FFF79CFE10BD0000D0EA00202F
:103DE00000000E0810B5552004490870662081F8BF
:103DF000240010220248FFF78BFE10BD90EA00203D
:103E000000000C080CB500200190009034480068B8
:103E100040F480303249086000BF3148006800F447
:103E2000003000900198401C0190009818B901984A
:103E3000B0F5A04FF1D12A48006800F4003010B16D
:103E40000120009001E0002000900098012846D158
:103E500023484030006840F08050214940310860DC
:103E60002048006840F440401E4908601C48083063
:103E700000681B49083108600846006840F40040AB
:103E800008600846006840F4A05008601648091F02
:103E90000860081F006840F08070091F086000BFBC
:103EA0000F48006800F000700028F9D040F205705B
:103EB0000E4908600A480830006820F003000849ED
:103EC000083108600846006840F00200086000BF42
:103ED00003480830006800F00C000828F8D10CBD39
:103EE000003802400070004019544007003C024076
:103EF0000146024801700020704700009D0100202B
:103F000001490870704700007002002010B5154884
:103F1000006840F47000134908601348006840F0DE
:103F200001001149086000200F49083108600E485F
:103F300000680E4908400C4908600D48091D0860DA
:103F4000081F006820F48020091F0860002006492F
:103F50000C310860FFF756FF4FF0006001498039CF
:103F6000086010BD88ED00E000380240FFFFF6FE5B
:103F70001030002410B50121064800F0E8F90128AE
:103F800002D10548006880470121024800F0ACF9E1
:103F900010BD0000000001406C0000207FB5044609
:103FA0000D461648056001210846FFF7F5FB02940F
:103FB000A720ADF804000020ADF80600ADF80C0015
:103FC0008DF80E0001A90E4800F030FB01221146C9
:103FD0000B4800F0CDF90121094800F088F91920BB
:103FE0008DF8000001208DF801008DF802008DF899
:103FF00003006846FFF7A4F97FBD00006C000020B5
:104000000000014000B58BB001210320FFF784FBC5
:1040100001210846FFF7A0FB0820099002208DF837
:10402000280003208DF8290009A93248FEF77DF801
:1040300048F20400099002208DF8280003208DF832
:10404000290009A92C48FEF770F80122032129480C
:10405000FEF7B3F801220F212748FEF7AEF8012240
:1040600002212548FEF7A9F85320ADF818000020DA
:10407000ADF81A0044F6206007900020ADF820004B
:1040800006A94FF0804000F0D1FA7020ADF804008E
:104090000120ADF80600002003900220ADF81000CA
:1040A00001A9400700F06EF901A94FF0804000F02F
:1040B000B1F901A94FF0804000F00CFA0821C806C0
:1040C00000F09EF90821C80600F0F6F90821C8069C
:1040D00000F050FA0121880700F0FAF80121880762
:1040E00000F005F9032004F00DF9FDF77FFE0BB099
:1040F00000BD0000000402400000024010B5022193
:104100003D4800F024F9C8B102213B4800F0ECF82A
:104110003A48006928B100220221374800F028F906
:1041200009E0354800F010F934490968441821467F
:10413000314800F072FA3149886A804704212E48DC
:1041400000F005F9C8B104212B4800F0CDF82B4848
:10415000406928B100220421274800F009F909E04C
:10416000254800F0F1F825494968441821462248BD
:1041700000F055FA2149C86A804708211E4800F01E
:10418000E6F8C8B108211C4800F0AEF81B48806969
:1041900028B100220821184800F0EAF809E0164882
:1041A00000F0D2F81549896844182146124800F0F9
:1041B00038FA1249086B804710210F4800F0C7F801
:1041C000C8B110210C4800F08FF80C48C06928B124
:1041D00000221021084800F0CBF809E0064800F062
:1041E000B3F80649C96844182146034800F01BFA91
:1041F0000249486B804710BD000400403829002068
:1042000000B58BB001210620FFF786FA01210220BC
:10421000FFF7A2FA4FF40070099002208DF82800F1
:1042200003208DF8290009A91A48FDF77EFF022214
:1042300009211848FDF7C1FF5320ADF818000020F0
:10424000ADF81A004FF47A7007900020ADF8200006
:1042500006A9114800F0EAF97020ADF80400012029
:10426000ADF80600002003900220ADF8100001A96F
:10427000094800F089F90821074800F0C1F9012137
:10428000054800F025F80121034800F030F80BB094
:1042900000BD0000000802400004004001200B495E
:1042A00008610121094841618161C16153200749C9
:1042B00008624FF6FF70486200200860486088601E
:1042C000C8608862C8620863486370473829002064
:1042D00021B1028842F08002028004E002884FF699
:1042E0007F731A4002807047CA430282704721B12F
:1042F000028842F00102028004E002884FF6FE7359
:104300001A4002807047F0B50C4615461E46002143
:10431000002200230189028B038C4FF6F877394085
:1043200021434FF6FC473A4040F201173A434FF61B
:10433000DD773B404FF6FF7707EA06172F433B43F5
:10434000018102830384F0BD0146486A704730B59D
:104350000246002000230024158A05EA01039589FE
:1043600005EA010413B10CB1012000E0002030BDCA
:104370001AB183890B43838102E083898B43838154
:104380007047000070B5002400220023058C4FF612
:10439000FE7635400584028C8388048B4FF68F753A
:1043A0002C40B51E2C400D882C43751E2A408D894B
:1043B0002A434D882A43104DA84202D00F4DA842EF
:1043C00013D14FF6F7752A40CD892A434FF6FB7576
:1043D0002A408D882A434FF6FF652B404FF6FF5544
:1043E0002B400D8A2B434D8A2B43838004838D6899
:1043F0004563028470BD00000000014000040140DC
:104400000A460021018B4FF6F773194011430183CF
:104410007047000070B5002400220023058C4FF681
:10442000EF7635400584028C8388048B48F6FF754F
:104430002C404FF6FF452C400D884FF6FF7606EADC
:1044400005252C434FF6DF752A408D8906EA0515B0
:104450002A434D8806EA05152A43154DA84202D085
:10446000144DA8421DD14FF67F752A40CD894FF6D5
:10447000FF7606EA05152A434FF6BF752A408D8858
:1044800006EA05152A434FF6FF352B404FF2FF751C
:104490002B400D8A06EA85052B434D8A06EA8505E1
:1044A0002B43838004838D688563028470BD000084
:1044B00000000140000401400A460021018B4FF238
:1044C000FF7319404FF6FF7303EA02231943018378
:1044D0007047000070B5002400220023058C4FF6C1
:1044E000FF6635400584028C8388848B4FF68F7578
:1044F0002C404FF6FC752C400D882C434FF6FF5591
:104500002A408D894FF6FF7606EA05252A434D8815
:1045100006EA05252A43154DA84202D0144DA842AB
:104520001DD14FF2FF752A40CD894FF6FF7606EA7E
:1045300005252A434FF6FF352A408D8806EA0525D2
:104540002A434EF6FF752B404DF6FF752B400D8A22
:1045500006EA05152B434D8A06EA05152B43838091
:1045600084838D68C563028470BD00000000014033
:10457000000401400A460021818B4FF6F773194071
:10458000114381837047000070B50022002300248E
:10459000058C4EF6FF7635400584038C8488828B2B
:1045A00048F6FF752A404FF6FF452A400D884FF622
:1045B000FF7606EA05252A434DF6FF752B408D89C7
:1045C00006EA05352B434D8806EA05352B430A4D8F
:1045D000A84202D0094DA84208D14BF6FF752C40E5
:1045E0000D8A4FF6FF7606EA85152C438480828378
:1045F0008D680564038470BD000001400004014023
:104600000A460021818B4FF2FF7319404FF6FF736A
:1046100003EA022319438183704741637047816332
:104620007047C16370470164704700000022028830
:10463000184B98420ED0184B98420BD0B0F1804FD7
:1046400008D0164B984205D0154B984202D0154B16
:10465000984204D14FF68F731A404B881A43124B7D
:10466000984207D0114B984204D04FF6FF431A40AE
:104670000B891A4302804B68C3620B880385054B84
:10468000984202D0044B984201D18B7A03860123D1
:104690008382704700000140000401400004004094
:1046A00000080040000C00400010004000140040D2
:1046B0001CB501210520FFF72FF8102000900120E4
:1046C0008DF8040000208DF8060003208DF8050009
:1046D00069460E48FDF729FDC020009001208DF8A5
:1046E000040000208DF8060003208DF805006946BF
:1046F0000748FDF71AFD0120064908600020064919
:10470000C1F89C020120054908601CBD0008024058
:1047100000000240900241420000404298024042A4
:1047200000280ADA01210B4A116000210A4AC2F866
:104730009C124142094A11600AE0002808DB00216E
:10474000044A11600121044AC2F89C12034908601E
:104750007047000090024142000040424004004087
:1047600010B50A48007808B9012000E00020074988
:10477000087008460078012803D1FF2000F03AF8BD
:1047800002E0002000F036F810BD00009701002084
:104790001CB501210320FEF7BFFF01210420FEF715
:1047A000DBFFC020009002208DF8040001208DF86E
:1047B000070003208DF8050069460C48FDF7B5FC9D
:1047C000022206210948FDF7F8FC022207210748CA
:1047D000FDF7F3FC02231A4603210548FFF793FD7A
:1047E00001210348FFF783FD1CBD000000040240C7
:1047F0000008004010B52DED028B04460F2C20D18F
:104800003848007800EE100AB8EE400A364801F049
:10481000B2FF36480088DFF8D8C000DFBAEE040ADD
:10482000314801F0A8FF6420DFF8C4C000DF9FED2D
:10483000310A2D4801F09FFFC820DFF8B4C000DF27
:104840004CE0FF2C1AD12748007800EE100AB8EE91
:10485000400A254801F08FFF4FF08040416B264809
:10486000007800EB8000400000F57A70814235D17D
:10487000224801780078FDF7C1FA2FE0012C28D1F9
:104880009FED1C0A184801F076FF174890ED010AC9
:10489000B0EE408ABAEE040A01F06DFF6420DFF842
:1048A00050C000DFB0EE480A0F4801F064FFA007D7
:1048B000416B1248007800EB8000400000F57A70F0
:1048C00081420BD10E4801780B480078FDF796FA2B
:1048D00004E09FED080A044801F04DFFBDEC028B97
:1048E00010BD000096010020EC0B00209401002078
:1048F0008D9500080000000090010020920100202A
:104900009101002070B504460D460F480078C8B9E3
:1049100000210E48FDF706F900BF0C48FDF7BAF973
:104920000028FAD1002221460848FDF739FAA9B239
:104930000648FDF73AFA01210448FDF7F3F8012093
:104940000149087070BD00007C000020B86402407E
:1049500010B500BF40F22441104800F0E8F8D8B18B
:104960000F4805F027FB00210E48FDF7DBF800BFDC
:104970000C48FDF78FF90028FAD14FF480610948FF
:10498000FDF713FA01210748FDF7CCF8034800882A
:10499000C4B202488088C4B210BD000000100140BB
:1049A000E0DD00204064024010B500BF40F2244129
:1049B0000F4800F0BCF8C8B100210E48FDF7B2F86E
:1049C00000BF0C48FDF766F90028FAD14FF480616A
:1049D0000848FDF7EAF901210648FDF7A3F8044865
:1049E0000088C4B20248001D0088C4B210BD000097
:1049F000004800402860024021B1828942F4005200
:104A0000828104E082894DF6FF731A4082817047EB
:104A10001AB1838A0B43838202E0838A8B438382A9
:104A20007047000010B504463248844208D1012185
:104A30001020FEF7C1FE00211020FEF7BDFE57E05A
:104A40002D48844209D101214804FEF795FE00213A
:104A50004FF40030FEF790FE4AE02848844209D126
:104A600001218804FEF788FE00214FF48020FEF724
:104A700083FE3DE02248844209D10121C804FEF7AB
:104A80007BFE00214FF40020FEF776FE30E01D484B
:104A9000844209D101210805FEF76EFE00214FF482
:104AA0008010FEF769FE23E01748844208D10121F7
:104AB0002020FEF781FE00212020FEF77DFE17E07A
:104AC0001248844209D101218807FEF755FE0021D2
:104AD0004FF08040FEF750FE0AE00D48844207D1B7
:104AE00001214005FEF748FE00216005FEF744FE67
:104AF00010BD00000010014000440040004800408C
:104B0000004C00400050004000140140007800407C
:104B1000007C004002460020B1F5007F00D100BFBC
:104B200013880B400BB1012000E00020704770B5E6
:104B30000246002400230025002040F66A16B142F8
:104B400000D100BFC1F3421501F01F03012606FA90
:104B500003F3012D02D19689334006E0022D02D1E4
:104B6000168A334001E0968A33400C12012606FA79
:104B700004F41688344013B10CB1012000E0002089
:104B800070BDF0B50346002400260025002040F645
:104B90006A17B94200D100BF1846C1F3421401F0B0
:104BA0001F06012707FA06F5012C01D10C3004E09D
:104BB000022C01D1103000E014301AB107682F43E5
:104BC000076002E00768AF430760F0BD2DE9FF47CB
:104BD00005460E460024A14600BFA046B08900B19C
:104BE00000BF2C8A24F44054F08804432C82AC8902
:104BF00041F20C608443B0883189084371890843CD
:104C00000443AC81AC8A24F44074B0890443AC8280
:104C10006846FEF7E1FD2048854202D01F488542E4
:104C200002D1DDF80C9001E0DDF80890A88900F4CD
:104C3000004040B109EBC90000EB091031684900A0
:104C4000B0FBF1F707E009EBC90000EB0910316890
:104C50008900B0FBF1F76420B7FBF0F004012009F4
:104C6000642101FB1078A88900F4004040B1322093
:104C700000EBC800B0FBF1F000F00700044308E0CF
:104C8000322000EB08106421B0FBF1F000F00F00BF
:104C900004432C81BDE8FF8700100140001401404F
:104CA000C1F308028280704700BFFEE700B591B0F3
:104CB00001218805FEF730FD01213D48FFF79CFEEC
:104CC000012240213A48FFF7A3FE01228021384803
:104CD000FFF79EFE46208DF8400002208DF841002F
:104CE0008DF8420001208DF8430010A8FEF728FB44
:104CF0003048FCF723FF4FF0006001902C48001D66
:104D000002902D480390002004904FF4806005909D
:104D1000002006904FF480600790002008900990D2
:104D20004FF480700A904FF440300B9000200C90AC
:104D30000D900E900F9001A91E48FDF705F8012176
:104D40001C48FCF7EFFE1B487830FCF7F7FE4FF0ED
:104D5000006001901648001D029040200490002041
:104D600006904FF4806007900020089009900A9008
:104D70004FF480300B9000200C900D900E900F900F
:104D800001A90C487830FCF7DFFF01221021094807
:104D90007830FCF7BBFF002106487830FCF7C2FEF4
:104DA000012240F224410248FFF7EBFE11B000BDA2
:104DB0000010014040640240E0DD002010B50121F8
:104DC0000803FEF7A9FC10BD30B505460C4662424B
:104DD00000212846FDF7ECFE624201212846FDF73E
:104DE000E7FE224602212846FDF7E2FE2246032185
:104DF0002846FDF7DDFE30BD30B505460C46624263
:104E000000212846FDF7D4FE224601212846FDF761
:104E1000CFFE224602212846FDF7CAFE6242032148
:104E20002846FDF7C5FE30BD10B52DED028B0446BA
:104E3000E07A0106207B41EA0041607B41EA0020E4
:104E4000A17B084300EE100AB8EEC00AB0EE408A1B
:104E5000404890ED000A404880ED000A9FED3F0A6F
:104E600028EE400A3B4880ED000A90ED000A3A48DF
:104E7000D0ED000A30EE600ADFED390AB4EEE00A48
:104E8000F1EE10FA05DD37480068401C354908602E
:104E900013E0304890ED000A2F48D0ED000A30EEC4
:104EA000600ADFED310AB4EEE00AF1EE10FA04D246
:104EB0002C480068401E2B4908602A4800684FF4BF
:104EC000B471484300EE100AB8EEC00A2148D0ED94
:104ED000000A30EE200AB1EE400A244880ED000AB4
:104EE00023480078012831D1224890ED000AB5EE20
:104EF000C00AF1EE10FA11D11C48D0ED000A1E488C
:104F000090ED001A70EEC10A9FED1C1A60EE810A46
:104F1000B0EE600A174801F015FC17E0154890ED57
:104F2000000AF7EE000AB4EE600AF1EE10FA0DD1B5
:104F300090ED010ADFED110A80EE201A0B4890ED8A
:104F4000000A30EE410A0C4880ED000ABDEC028BED
:104F500010BD0000080200200C0200200AD7233CEC
:104F60000000344310020020000034C3A4010020DC
:104F7000A0010020640A0020A8010020780BB6419F
:104F800010B52DED028B0446E17A207B41EA00202A
:104F900000B200EE100AB8EEC00AB0EE408A4248F5
:104FA00090ED000A414880ED000A9FED410A28EE8D
:104FB000000A3D4880ED000A90ED000A3B48D0ED24
:104FC000000A30EE600ADFED3B0AB4EEE00AF1EED3
:104FD00010FA05DD38480068401E3749086013E0C4
:104FE000314890ED000A3148D0ED000A30EE600AF9
:104FF000DFED320AB4EEE00AF1EE10FA04D22E48E8
:105000000068401C2C4908602B4800684FF4B471BC
:10501000484300EE100AB8EEC00A2348D0ED000A5B
:1050200030EE200A264880ED000A90ED000A25485F
:1050300080ED010A24480078012831D1234890ED01
:10504000000AB5EEC00AF1EE10FA11D11C48D0EDFD
:10505000000A1F4890ED001A70EEC10A9FED1D1A5C
:1050600060EE810AB0EE600A184801F06BFB17E0B1
:10507000164890ED000AF7EE000AB4EE600AF1EE71
:1050800010FA0DD190ED010ADFED120A80EE201A20
:105090000B4890ED000A30EE410A0D4880ED000A01
:1050A000BDEC028B10BD000014020020180200208D
:1050B0000AD7233C000034431C020020000034C304
:1050C000B401002048EA0020A0010020640A00206A
:1050D000A8010020780BB64110B50446E07A2649B5
:1050E0000870207B4870607B8870A07BC87094ED4E
:1050F000030ADFED220A80EE201A214880ED001A13
:1051000090ED000A1F4880ED010A1F480078012831
:1051100031D11E4890ED000AB5EEC00AF1EE10FA4A
:1051200011D11748D0ED000A194890ED001A70EE21
:10513000C10A9FED181A60EE810AB0EE600A1348AA
:1051400001F000FB17E0114890ED000AF7EE000AAD
:10515000B4EE600AF1EE10FA0DD190ED010ADFED28
:105160000D0A80EE201A064890ED000A30EE410A42
:10517000074880ED000A10BDB801002000007A4405
:10518000BC01002048EA0020A0010020640A0020A1
:10519000A8010020780BB64110B504465F48B0F96D
:1051A00000005F490880207BE17A40EA012000B2DC
:1051B0005A4908805B48006838B10846B0F90000D9
:1051C000574908800020574908605548B0F9000049
:1051D000B0F5006F0BDA5148B0F90000B0F5C05FD0
:1051E00005DD51480068401E4F49086010E04B48FB
:1051F000B0F90000B0F5006F0ADA4948B0F90000D4
:10520000B0F5C05F04DD48480068401C46490860AE
:10521000454800784149098801EB403000B24349D4
:1052200048800846B0F9023005224149414800F063
:1052300073FB3E4948800846B0F9020000EE100AB0
:10524000B8EEC00A3C4880ED030A3C480078C8B973
:105250003B480088282815D10846B0F9020000EE26
:10526000100AB8EEC00A3748D0ED040A30EE600AE2
:10527000DFED350A80EE201A344880ED001A012057
:105280002E49087032480088C8B3324890ED000AB1
:10529000F7EE000AB4EE600AF1EE10FA15D12348D9
:1052A000B0F9020000EE900AF8EEE00A254890ED11
:1052B000041A70EEC10A274890ED011A70EE810AB7
:1052C000B0EE600A01F03EFA26E0224890ED000AB6
:1052D000B5EEC00AF1EE10FA1ED11448B0F9020082
:1052E00000EE900AF8EEE00A164890ED041A70EE0F
:1052F000C10AB0EE600A184801F024FA0CE0FFE79A
:105300000F480088401C0E49088008460088322853
:1053100002D101200E49088010BD0000FC010020D0
:10532000FA0100200402002000020020B001002049
:10533000F80100207AEA002048EA0020A0010020BD
:10534000F6010020D0EA0020780BB641A801002029
:10535000F4010020640A0020480B002030B5054607
:105360000C46624200212846FDF722FC62420121E0
:105370002846FDF71DFC624202212846FDF718FC75
:10538000624203212846FDF713FC30BD0DE00748BB
:10539000B0F90630B0F90420B0F9021004A004F00E
:1053A000F1FF3220DFF81CC000DFF0E70900002029
:1053B0005825640909592564090952455325640D86
:1053C0000A0000008D95000800B52DED068B83B016
:1053D000B0EE408AF0EE608AB0EE419AF0EE619A4B
:1053E000B0EE42AABCEEC80A10EE100A16490870C8
:1053F000BCEEE80A10EE100A14490870BCEEC90AA7
:1054000010EE100A12490870BCEEE90A10EE100AFC
:1054100010490880BCEECA0A10EE100A0E49087046
:10542000084600780B490988CDE900100848037840
:10543000064802780448017808A004F0A3FF03B0EE
:10544000BDEC068B00BD0000900100209101002002
:10545000920100209401002096010020313A256439
:1054600009323A256409636F6E3A25640974696DDF
:10547000653A2564095253463A25640010B52DED6E
:10548000028BB0EE408AF0EE608AF0EE680AB0EE71
:10549000480A034801F059F9BDEC028B10BD000029
:1054A000EC0B002010B52DED028BB0EE408AF0EE33
:1054B000608AF0EE680AB0EE480A034801F04AF943
:1054C000BDEC028B10BD0000EC0B002000B52DEDF3
:1054D0000A8B85B0B0EE408AF0EE608AB0EE419A59
:1054E000B0EE491AF0EE680AB0EE480A104801F032
:1054F0003BF919EE100AFBF7D5F941EC1A0B18EE3F
:10550000900AFBF7CFF941EC1B0B18EE100AFBF7E2
:10551000C9F941EC1C0B8DED02AB8DED00BB53ECDA
:105520001C2B04A004F02EFF05B0BDEC0A8B00BDBF
:10553000EC0B0020703A256609693A256609643A41
:1055400025660D0A0000000010B5FCF731FC0120B3
:10555000FCF73AF90220FCF737F96420DFF804C0C1
:1055600000DF10BD8D950008FCF757FC5AE00022C3
:10557000C8214FF6FF70DFF8B0C000DF022851D11C
:10558000DFF8A8C000DF0446102C3BD006DC012C5D
:1055900009D0022C0AD0042C42D10EE0202C38D0A5
:1055A000402C3DD139E0FCF745FC3AE0FCF778FEB1
:1055B00010B101201E49087033E01E4890ED000A2A
:1055C000F1EE000AB4EE600AF1EE10FA03D0B1EE8B
:1055D000000A80ED000AFCF769FE08B9012000E02E
:1055E00000200546FEF78CFCFCF760FE48B9124827
:1055F00090ED020A80ED010A9FED100A0D4880ED42
:10560000000A0EE0FCF74CFE10B101200C490870B6
:1056100007E000200A49087003E0FCF7FEFB00E009
:1056200000BF00BFA3E700006D9600089D9500082D
:105630004B00002080090020640A002000000000C8
:105640004C0000200023404A40494148DFF804C193
:1056500000DF414908600023404A3C49891C40481A
:10566000DFF8F0C000DF3F49086000233E4A4FF0FA
:1056700002113E48DFF8DCC000DF3D49086000232E
:105680003C4A3249091D3C48DFF8C8C000DF3B49AD
:10569000086000233A4A2D49C91C3A48DFF8B4C0D3
:1056A00000DF394908600023384A2849C91C3848B6
:1056B000DFF8A0C000DF374908600023364A2349DD
:1056C000091D3648DFF88CC000DF3549086000232B
:1056D000344A1E49891C3448DFF878C000DF33495A
:1056E00008600023324A1949491D3248DFF864C076
:1056F00000DF314908600023304A1449491D304811
:10570000DFF850C000DF2F49086000232E4A0F4900
:10571000491D2E48DFF83CC000DF2D4908600023FA
:105720002C4A0A49491D2C48DFF828C000DF2B49C4
:10573000086000232A4A4FF002112A48DFF814C0FB
:1057400000DF29490860704710190020010002009D
:105750009D5E00084D9F000828000020101B0020BF
:10576000ED6300082C000020100F00208D5300086E
:105770001400002010110020ED580008180000202F
:1057800010130020F55B00081C00002010150020FD
:10579000715C00082000002010170020955A0008B6
:1057A00024000020101D0020596000083000002057
:1057B000101F00201D5D0008340000201021002073
:1057C0005D59000838000020102300200161000806
:1057D0003C000020102500206955000840000020F2
:1057E00010270020ED5700084400002040F6C410A8
:1057F000DFF8BCC000DFB7EE000A2E4880ED000ADB
:1058000001202D4908704FF44870DFF8A4C000DF74
:105810009FED2A0A274880ED000A47E028480078D3
:10582000012803D02748007801283BD1264800787A
:1058300018BB0020254908702549087025490870C3
:105840000121A720DFF890C000DF24490860084646
:10585000006838B301201C4908702148D0ED010AC6
:105860009FED201A70EE810A9FED1F1A70EE810ADB
:10587000B0EE600A00F07FFF14E0144800780128C1
:1058800010D11448007868B90120124908701448F2
:10589000D0ED010A9FED141A70EEC10AB0EE600A55
:1058A00000F069FF0120DFF808C000DFB6E7000064
:1058B0008D950008640A00205900002000000000B7
:1058C0004B0000204C000020480000204900002030
:1058D0004A000020680000209D9E0008640000200F
:1058E000EC0B002000C052440000964308B50EE0C7
:1058F000C8216846FCF768FA012808D00448016806
:105900000120DFF810C000DF009803F043F8EFE754
:105910002800002001960008F0B599B006460C4614
:1059200015461F46207826F810702078401C2070FD
:105930002078A84201D1002020702A4669463046CE
:10594000FAF7CCFD2946684604F055FD691E01EBC7
:10595000D17040103DF9100019B0F0BD00250024B1
:105960000120DFF8A8C000DF4FE0B7EE000A2848AA
:1059700080ED000A27480078002843D026480078A8
:1059800000283FD0FCF744FC00283BD12348007896
:10599000002837D02248007868B32248007850BBEE
:1059A0002148007838BB21480078854201D0601C2E
:1059B000C4B2022C06DD00241C480578FCF73AFA34
:1059C000FEF7CEFEFEF73AF8A8B11848007890B17D
:1059D0001748B0F90000B0F5E17F0DDD1548B0F9CA
:1059E000000040F22621884206DD4FF4167012496D
:1059F00008801249088005E04FF480600E49088055
:105A00000E490880DFF838C000DFAEE705980008CF
:105A1000640A002058000020590000205F00002088
:105A20005A0000205A020020990100207102002033
:105A30007C0200207A0200202002002022020020A6
:105A40002198000870B52DED028B82B006460C46F9
:105A50001546B0EE408A9FED0E0A8DED010A2078C2
:105A600006EB800080ED008A2078401C20702078B2
:105A7000A84201D10020207001AA29463046FAF739
:105A8000E5FC9DED010A02B0BDEC028B70BD00008B
:105A90000000000008B5002440F2FF3240F202513D
:105AA000382002F05BFD40F2FF32D11C082002F0EA
:105AB00055FD40F2FF328821102002F04FFD40F2E8
:105AC000FF3240F20351182002F048FD40F2FF324D
:105AD00040F20451202002F041FD40F2FF3240F23A
